{
  "contractName": "Electionn",
  "abi": [
    {
      "inputs": [],
      "stateMutability": "nonpayable",
      "type": "constructor"
    },
    {
      "anonymous": false,
      "inputs": [
        {
          "indexed": true,
          "internalType": "address",
          "name": "previousOwner",
          "type": "address"
        },
        {
          "indexed": true,
          "internalType": "address",
          "name": "newOwner",
          "type": "address"
        }
      ],
      "name": "OwnershipTransferred",
      "type": "event"
    },
    {
      "anonymous": false,
      "inputs": [
        {
          "indexed": true,
          "internalType": "uint256",
          "name": "contenderId",
          "type": "uint256"
        },
        {
          "indexed": true,
          "internalType": "address",
          "name": "voter",
          "type": "address"
        }
      ],
      "name": "Voted",
      "type": "event"
    },
    {
      "anonymous": false,
      "inputs": [
        {
          "indexed": false,
          "internalType": "uint256",
          "name": "winningContenderId",
          "type": "uint256"
        }
      ],
      "name": "VotingClosed",
      "type": "event"
    },
    {
      "inputs": [],
      "name": "contenderCount",
      "outputs": [
        {
          "internalType": "uint256",
          "name": "",
          "type": "uint256"
        }
      ],
      "stateMutability": "view",
      "type": "function"
    },
    {
      "inputs": [
        {
          "internalType": "uint256",
          "name": "",
          "type": "uint256"
        }
      ],
      "name": "contenders",
      "outputs": [
        {
          "internalType": "uint256",
          "name": "id",
          "type": "uint256"
        },
        {
          "internalType": "string",
          "name": "name",
          "type": "string"
        },
        {
          "internalType": "uint256",
          "name": "voteCount",
          "type": "uint256"
        }
      ],
      "stateMutability": "view",
      "type": "function"
    },
    {
      "inputs": [
        {
          "internalType": "address",
          "name": "",
          "type": "address"
        }
      ],
      "name": "hasVoted",
      "outputs": [
        {
          "internalType": "bool",
          "name": "",
          "type": "bool"
        }
      ],
      "stateMutability": "view",
      "type": "function"
    },
    {
      "inputs": [],
      "name": "owner",
      "outputs": [
        {
          "internalType": "address",
          "name": "",
          "type": "address"
        }
      ],
      "stateMutability": "view",
      "type": "function"
    },
    {
      "inputs": [
        {
          "internalType": "address",
          "name": "newOwner",
          "type": "address"
        }
      ],
      "name": "transferOwnership",
      "outputs": [],
      "stateMutability": "nonpayable",
      "type": "function"
    },
    {
      "inputs": [],
      "name": "votingClosed",
      "outputs": [
        {
          "internalType": "bool",
          "name": "",
          "type": "bool"
        }
      ],
      "stateMutability": "view",
      "type": "function"
    },
    {
      "inputs": [],
      "name": "winningContenderId",
      "outputs": [
        {
          "internalType": "uint256",
          "name": "",
          "type": "uint256"
        }
      ],
      "stateMutability": "view",
      "type": "function"
    },
    {
      "inputs": [
        {
          "internalType": "string",
          "name": "_name",
          "type": "string"
        }
      ],
      "name": "addContender",
      "outputs": [],
      "stateMutability": "nonpayable",
      "type": "function"
    },
    {
      "inputs": [
        {
          "internalType": "uint256",
          "name": "_contenderId",
          "type": "uint256"
        }
      ],
      "name": "vote",
      "outputs": [],
      "stateMutability": "nonpayable",
      "type": "function"
    },
    {
      "inputs": [],
      "name": "closeVoting",
      "outputs": [],
      "stateMutability": "nonpayable",
      "type": "function"
    },
    {
      "inputs": [
        {
          "internalType": "uint256",
          "name": "_contenderId",
          "type": "uint256"
        }
      ],
      "name": "getContenderVoteCount",
      "outputs": [
        {
          "internalType": "uint256",
          "name": "",
          "type": "uint256"
        }
      ],
      "stateMutability": "view",
      "type": "function"
    },
    {
      "inputs": [],
      "name": "getAllContenders",
      "outputs": [
        {
          "components": [
            {
              "internalType": "uint256",
              "name": "id",
              "type": "uint256"
            },
            {
              "internalType": "string",
              "name": "name",
              "type": "string"
            },
            {
              "internalType": "uint256",
              "name": "voteCount",
              "type": "uint256"
            }
          ],
          "internalType": "struct Electionn.Contender[]",
          "name": "",
          "type": "tuple[]"
        }
      ],
      "stateMutability": "view",
      "type": "function"
    }
  ],
  "bytecode": "0x608060405234801561001057600080fd5b50336000806101000a81548173ffffffffffffffffffffffffffffffffffffffff021916908373ffffffffffffffffffffffffffffffffffffffff16021790555060006002819055506000600360006101000a81548160ff02191690831515021790555061164e806100836000396000f3fe608060405234801561001057600080fd5b50600436106100b45760003560e01c806377eb1b711161007157806377eb1b711461018d5780638da5cb5b146101ab5780638eb31d96146101c9578063b495b084146101fb578063c631b29214610219578063f2fde38b14610223576100b4565b80630121b93f146100b957806305520f38146100d557806309eef43e146100f35780632479ecb81461012357806362a83bd5146101415780636ec647e814610171575b600080fd5b6100d360048036038101906100ce9190610d0a565b61023f565b005b6100dd610438565b6040516100ea9190610ef1565b60405180910390f35b61010d60048036038101906101089190610f71565b6105ad565b60405161011a9190610fb9565b60405180910390f35b61012b6105cd565b6040516101389190610fb9565b60405180910390f35b61015b60048036038101906101569190610d0a565b6105e0565b6040516101689190610fe3565b60405180910390f35b61018b60048036038101906101869190611133565b610650565b005b6101956107b0565b6040516101a29190610fe3565b60405180910390f35b6101b36107b6565b6040516101c0919061118b565b60405180910390f35b6101e360048036038101906101de9190610d0a565b6107da565b6040516101f2939291906111f0565b60405180910390f35b61020361088c565b6040516102109190610fe3565b60405180910390f35b610221610892565b005b61023d60048036038101906102389190610f71565b610a41565b005b600360009054906101000a900460ff161561028f576040517f08c379a00000000000000000000000000000000000000000000000000000000081526004016102869061127a565b60405180910390fd5b6000811180156102a157506002548111155b6102e0576040517f08c379a00000000000000000000000000000000000000000000000000000000081526004016102d7906112e6565b60405180910390fd5b600560003373ffffffffffffffffffffffffffffffffffffffff1673ffffffffffffffffffffffffffffffffffffffff16815260200190815260200160002060009054906101000a900460ff161561036d576040517f08c379a000000000000000000000000000000000000000000000000000000000815260040161036490611352565b60405180910390fd5b600160008281526020019081526020016000206002016000815480929190610394906113a1565b91905055506001600560003373ffffffffffffffffffffffffffffffffffffffff1673ffffffffffffffffffffffffffffffffffffffff16815260200190815260200160002060006101000a81548160ff0219169083151502179055503373ffffffffffffffffffffffffffffffffffffffff16817f030b0f8dcd86a031eddb071f91882edeac8173663ba775713b677b42b51be44b60405160405180910390a350565b6060600060025467ffffffffffffffff81111561045857610457611008565b5b60405190808252806020026020018201604052801561049157816020015b61047e610bfc565b8152602001906001900390816104765790505b5090506000600190505b60025481116105a55760016000828152602001908152602001600020604051806060016040529081600082015481526020016001820180546104dc90611419565b80601f016020809104026020016040519081016040528092919081815260200182805461050890611419565b80156105555780601f1061052a57610100808354040283529160200191610555565b820191906000526020600020905b81548152906001019060200180831161053857829003601f168201915b5050505050815260200160028201548152505082600183610576919061144b565b815181106105875761058661147f565b5b6020026020010181905250808061059d906113a1565b91505061049b565b508091505090565b60056020528060005260406000206000915054906101000a900460ff1681565b600360009054906101000a900460ff1681565b600080821180156105f357506002548211155b610632576040517f08c379a0000000000000000000000000000000000000000000000000000000008152600401610629906112e6565b60405180910390fd5b60016000838152602001908152602001600020600201549050919050565b60008054906101000a900473ffffffffffffffffffffffffffffffffffffffff1673ffffffffffffffffffffffffffffffffffffffff163373ffffffffffffffffffffffffffffffffffffffff16146106de576040517f08c379a00000000000000000000000000000000000000000000000000000000081526004016106d5906114fa565b60405180910390fd5b600360009054906101000a900460ff161561072e576040517f08c379a00000000000000000000000000000000000000000000000000000000081526004016107259061127a565b60405180910390fd5b60026000815480929190610741906113a1565b919050555060405180606001604052806002548152602001828152602001600081525060016000600254815260200190815260200160002060008201518160000155602082015181600101908051906020019061079f929190610c1d565b506040820151816002015590505050565b60025481565b60008054906101000a900473ffffffffffffffffffffffffffffffffffffffff1681565b600160205280600052604060002060009150905080600001549080600101805461080390611419565b80601f016020809104026020016040519081016040528092919081815260200182805461082f90611419565b801561087c5780601f106108515761010080835404028352916020019161087c565b820191906000526020600020905b81548152906001019060200180831161085f57829003601f168201915b5050505050908060020154905083565b60045481565b60008054906101000a900473ffffffffffffffffffffffffffffffffffffffff1673ffffffffffffffffffffffffffffffffffffffff163373ffffffffffffffffffffffffffffffffffffffff1614610920576040517f08c379a0000000000000000000000000000000000000000000000000000000008152600401610917906114fa565b60405180910390fd5b600360009054906101000a900460ff1615610970576040517f08c379a000000000000000000000000000000000000000000000000000000000815260040161096790611566565b60405180910390fd5b6001600360006101000a81548160ff021916908315150217905550600080600190505b6002548111610a045781600160008381526020019081526020016000206002015411156109f1576001600082815260200190815260200160002060020154915060016000828152602001908152602001600020600001546004819055505b80806109fc906113a1565b915050610993565b507f8e9b46a70b3967bc9ea56ca61732c363a191fac88ae3ba011f4e030711c90117600454604051610a369190610fe3565b60405180910390a150565b60008054906101000a900473ffffffffffffffffffffffffffffffffffffffff1673ffffffffffffffffffffffffffffffffffffffff163373ffffffffffffffffffffffffffffffffffffffff1614610acf576040517f08c379a0000000000000000000000000000000000000000000000000000000008152600401610ac6906114fa565b60405180910390fd5b600073ffffffffffffffffffffffffffffffffffffffff168173ffffffffffffffffffffffffffffffffffffffff161415610b3f576040517f08c379a0000000000000000000000000000000000000000000000000000000008152600401610b36906115f8565b60405180910390fd5b8073ffffffffffffffffffffffffffffffffffffffff1660008054906101000a900473ffffffffffffffffffffffffffffffffffffffff1673ffffffffffffffffffffffffffffffffffffffff167f8be0079c531659141344cd1fd0a4f28419497f9722a3daafe3b4186f6b6457e060405160405180910390a3806000806101000a81548173ffffffffffffffffffffffffffffffffffffffff021916908373ffffffffffffffffffffffffffffffffffffffff16021790555050565b60405180606001604052806000815260200160608152602001600081525090565b828054610c2990611419565b90600052602060002090601f016020900481019282610c4b5760008555610c92565b82601f10610c6457805160ff1916838001178555610c92565b82800160010185558215610c92579182015b82811115610c91578251825591602001919060010190610c76565b5b509050610c9f9190610ca3565b5090565b5b80821115610cbc576000816000905550600101610ca4565b5090565b6000604051905090565b600080fd5b600080fd5b6000819050919050565b610ce781610cd4565b8114610cf257600080fd5b50565b600081359050610d0481610cde565b92915050565b600060208284031215610d2057610d1f610cca565b5b6000610d2e84828501610cf5565b91505092915050565b600081519050919050565b600082825260208201905092915050565b6000819050602082019050919050565b610d6c81610cd4565b82525050565b600081519050919050565b600082825260208201905092915050565b60005b83811015610dac578082015181840152602081019050610d91565b83811115610dbb576000848401525b50505050565b6000601f19601f8301169050919050565b6000610ddd82610d72565b610de78185610d7d565b9350610df7818560208601610d8e565b610e0081610dc1565b840191505092915050565b6000606083016000830151610e236000860182610d63565b5060208301518482036020860152610e3b8282610dd2565b9150506040830151610e506040860182610d63565b508091505092915050565b6000610e678383610e0b565b905092915050565b6000602082019050919050565b6000610e8782610d37565b610e918185610d42565b935083602082028501610ea385610d53565b8060005b85811015610edf5784840389528151610ec08582610e5b565b9450610ecb83610e6f565b925060208a01995050600181019050610ea7565b50829750879550505050505092915050565b60006020820190508181036000830152610f0b8184610e7c565b905092915050565b600073ffffffffffffffffffffffffffffffffffffffff82169050919050565b6000610f3e82610f13565b9050919050565b610f4e81610f33565b8114610f5957600080fd5b50565b600081359050610f6b81610f45565b92915050565b600060208284031215610f8757610f86610cca565b5b6000610f9584828501610f5c565b91505092915050565b60008115159050919050565b610fb381610f9e565b82525050565b6000602082019050610fce6000830184610faa565b92915050565b610fdd81610cd4565b82525050565b6000602082019050610ff86000830184610fd4565b92915050565b600080fd5b600080fd5b7f4e487b7100000000000000000000000000000000000000000000000000000000600052604160045260246000fd5b61104082610dc1565b810181811067ffffffffffffffff8211171561105f5761105e611008565b5b80604052505050565b6000611072610cc0565b905061107e8282611037565b919050565b600067ffffffffffffffff82111561109e5761109d611008565b5b6110a782610dc1565b9050602081019050919050565b82818337600083830152505050565b60006110d66110d184611083565b611068565b9050828152602081018484840111156110f2576110f1611003565b5b6110fd8482856110b4565b509392505050565b600082601f83011261111a57611119610ffe565b5b813561112a8482602086016110c3565b91505092915050565b60006020828403121561114957611148610cca565b5b600082013567ffffffffffffffff81111561116757611166610ccf565b5b61117384828501611105565b91505092915050565b61118581610f33565b82525050565b60006020820190506111a0600083018461117c565b92915050565b600082825260208201905092915050565b60006111c282610d72565b6111cc81856111a6565b93506111dc818560208601610d8e565b6111e581610dc1565b840191505092915050565b60006060820190506112056000830186610fd4565b818103602083015261121781856111b7565b90506112266040830184610fd4565b949350505050565b7f566f74696e6720697320636c6f73656400000000000000000000000000000000600082015250565b60006112646010836111a6565b915061126f8261122e565b602082019050919050565b6000602082019050818103600083015261129381611257565b9050919050565b7f496e76616c696420636f6e74656e646572204944000000000000000000000000600082015250565b60006112d06014836111a6565b91506112db8261129a565b602082019050919050565b600060208201905081810360008301526112ff816112c3565b9050919050565b7f596f75206861766520616c726561647920766f74656400000000000000000000600082015250565b600061133c6016836111a6565b915061134782611306565b602082019050919050565b6000602082019050818103600083015261136b8161132f565b9050919050565b7f4e487b7100000000000000000000000000000000000000000000000000000000600052601160045260246000fd5b60006113ac82610cd4565b91507fffffffffffffffffffffffffffffffffffffffffffffffffffffffffffffffff8214156113df576113de611372565b5b600182019050919050565b7f4e487b7100000000000000000000000000000000000000000000000000000000600052602260045260246000fd5b6000600282049050600182168061143157607f821691505b60208210811415611445576114446113ea565b5b50919050565b600061145682610cd4565b915061146183610cd4565b92508282101561147457611473611372565b5b828203905092915050565b7f4e487b7100000000000000000000000000000000000000000000000000000000600052603260045260246000fd5b7f4f776e61626c653a2063616c6c6572206973206e6f7420746865206f776e6572600082015250565b60006114e46020836111a6565b91506114ef826114ae565b602082019050919050565b60006020820190508181036000830152611513816114d7565b9050919050565b7f566f74696e6720697320616c726561647920636c6f7365640000000000000000600082015250565b60006115506018836111a6565b915061155b8261151a565b602082019050919050565b6000602082019050818103600083015261157f81611543565b9050919050565b7f4f776e61626c653a206e6577206f776e657220697320746865207a65726f206160008201527f6464726573730000000000000000000000000000000000000000000000000000602082015250565b60006115e26026836111a6565b91506115ed82611586565b604082019050919050565b60006020820190508181036000830152611611816115d5565b905091905056fea2646970667358221220b9e28f5a364ed79ca8eb1456e4f164c227a620ade5fe90494a88b45ea7133b3964736f6c634300080a0033",
  "immutableReferences": {},
  "source": "// SPDX-License-Identifier: MIT\r\npragma solidity ^0.8.0;\r\n\r\ncontract Ownable {\r\n    address public owner;\r\n\r\n    event OwnershipTransferred(address indexed previousOwner, address indexed newOwner);\r\n\r\n    constructor() {\r\n        owner = msg.sender;\r\n    }\r\n\r\n    modifier onlyOwner() {\r\n        require(msg.sender == owner, \"Ownable: caller is not the owner\");\r\n        _;\r\n    }\r\n\r\n    function transferOwnership(address newOwner) public onlyOwner {\r\n        require(newOwner != address(0), \"Ownable: new owner is the zero address\");\r\n        emit OwnershipTransferred(owner, newOwner);\r\n        owner = newOwner;\r\n    }\r\n}\r\n\r\ncontract Electionn is Ownable {\r\n    mapping(uint256 => Contender) public contenders;\r\n    uint256 public contenderCount;\r\n    bool public votingClosed;\r\n    uint256 public winningContenderId;\r\n    \r\n    struct Contender {\r\n        uint256 id;\r\n        string name;\r\n        uint256 voteCount;\r\n    }\r\n\r\n    mapping(address => bool) public hasVoted; // Mapping to track whether an address has voted\r\n\r\n    event Voted(uint256 indexed contenderId, address indexed voter);\r\n    event VotingClosed(uint256 winningContenderId);\r\n\r\n    constructor() {\r\n        contenderCount = 0;\r\n        votingClosed = false;\r\n    }\r\n\r\n    function addContender(string memory _name) external onlyOwner {\r\n        require(!votingClosed, \"Voting is closed\");\r\n        \r\n        contenderCount++;\r\n        contenders[contenderCount] = Contender(contenderCount, _name, 0);\r\n    }\r\n\r\n    function vote(uint256 _contenderId) external {\r\n        require(!votingClosed, \"Voting is closed\");\r\n        require(_contenderId > 0 && _contenderId <= contenderCount, \"Invalid contender ID\");\r\n        require(!hasVoted[msg.sender], \"You have already voted\");\r\n        \r\n        contenders[_contenderId].voteCount++;\r\n        hasVoted[msg.sender] = true;\r\n        emit Voted(_contenderId, msg.sender);\r\n    }\r\n\r\n    function closeVoting() external onlyOwner {\r\n        require(!votingClosed, \"Voting is already closed\");\r\n        \r\n        votingClosed = true;\r\n        uint256 maxVotes = 0;\r\n        for (uint256 i = 1; i <= contenderCount; i++) {\r\n            if (contenders[i].voteCount > maxVotes) {\r\n                maxVotes = contenders[i].voteCount;\r\n                winningContenderId = contenders[i].id;\r\n            }\r\n        }\r\n        emit VotingClosed(winningContenderId);\r\n    }\r\n\r\n    function getContenderVoteCount(uint256 _contenderId) external view returns (uint256) {\r\n        require(_contenderId > 0 && _contenderId <= contenderCount, \"Invalid contender ID\");\r\n        return contenders[_contenderId].voteCount;\r\n    }\r\n\r\n    function getAllContenders() external view returns (Contender[] memory) {\r\n        Contender[] memory allContenders = new Contender[](contenderCount);\r\n        for (uint256 i = 1; i <= contenderCount; i++) {\r\n            allContenders[i - 1] = contenders[i];\r\n        }\r\n        return allContenders;\r\n    }\r\n}\r\n",
  "sourcePath": "D:\\FYPROJ\\WORKING\\Server\\contracts\\Election.sol",
  "compiler": {
    "name": "solc",
    "version": "0.8.10+commit.fc410830.Emscripten.clang"
  },
  "schemaVersion": "3.4.16",
  "updatedAt": "2024-03-12T15:49:47.513Z",
  "devdoc": {
    "kind": "dev",
    "methods": {},
    "version": 1
  },
  "userdoc": {
    "kind": "user",
    "methods": {},
    "version": 1
  }
}