{
  "contractName": "Election",
  "abi": [
    {
      "inputs": [],
      "stateMutability": "nonpayable",
      "type": "constructor"
    },
    {
      "anonymous": false,
      "inputs": [
        {
          "indexed": true,
          "internalType": "address",
          "name": "previousOwner",
          "type": "address"
        },
        {
          "indexed": true,
          "internalType": "address",
          "name": "newOwner",
          "type": "address"
        }
      ],
      "name": "OwnershipTransferred",
      "type": "event"
    },
    {
      "anonymous": false,
      "inputs": [],
      "name": "RegistrationClosed",
      "type": "event"
    },
    {
      "anonymous": false,
      "inputs": [],
      "name": "RegistrationOpened",
      "type": "event"
    },
    {
      "anonymous": false,
      "inputs": [
        {
          "indexed": true,
          "internalType": "uint256",
          "name": "contenderId",
          "type": "uint256"
        },
        {
          "indexed": true,
          "internalType": "address",
          "name": "voter",
          "type": "address"
        }
      ],
      "name": "Voted",
      "type": "event"
    },
    {
      "anonymous": false,
      "inputs": [
        {
          "indexed": false,
          "internalType": "uint256",
          "name": "winningContenderId",
          "type": "uint256"
        }
      ],
      "name": "VotingClosed",
      "type": "event"
    },
    {
      "inputs": [],
      "name": "contenderCount",
      "outputs": [
        {
          "internalType": "uint256",
          "name": "",
          "type": "uint256"
        }
      ],
      "stateMutability": "view",
      "type": "function",
      "constant": true
    },
    {
      "inputs": [
        {
          "internalType": "uint256",
          "name": "",
          "type": "uint256"
        }
      ],
      "name": "contenders",
      "outputs": [
        {
          "internalType": "uint256",
          "name": "id",
          "type": "uint256"
        },
        {
          "internalType": "string",
          "name": "name",
          "type": "string"
        },
        {
          "internalType": "uint256",
          "name": "voteCount",
          "type": "uint256"
        }
      ],
      "stateMutability": "view",
      "type": "function",
      "constant": true
    },
    {
      "inputs": [
        {
          "internalType": "address",
          "name": "",
          "type": "address"
        }
      ],
      "name": "hasVoted",
      "outputs": [
        {
          "internalType": "bool",
          "name": "",
          "type": "bool"
        }
      ],
      "stateMutability": "view",
      "type": "function",
      "constant": true
    },
    {
      "inputs": [
        {
          "internalType": "address",
          "name": "",
          "type": "address"
        }
      ],
      "name": "isRegistered",
      "outputs": [
        {
          "internalType": "bool",
          "name": "",
          "type": "bool"
        }
      ],
      "stateMutability": "view",
      "type": "function",
      "constant": true
    },
    {
      "inputs": [],
      "name": "owner",
      "outputs": [
        {
          "internalType": "address",
          "name": "",
          "type": "address"
        }
      ],
      "stateMutability": "view",
      "type": "function",
      "constant": true
    },
    {
      "inputs": [],
      "name": "registrationsOpen",
      "outputs": [
        {
          "internalType": "bool",
          "name": "",
          "type": "bool"
        }
      ],
      "stateMutability": "view",
      "type": "function",
      "constant": true
    },
    {
      "inputs": [
        {
          "internalType": "address",
          "name": "newOwner",
          "type": "address"
        }
      ],
      "name": "transferOwnership",
      "outputs": [],
      "stateMutability": "nonpayable",
      "type": "function"
    },
    {
      "inputs": [],
      "name": "votingClosed",
      "outputs": [
        {
          "internalType": "bool",
          "name": "",
          "type": "bool"
        }
      ],
      "stateMutability": "view",
      "type": "function",
      "constant": true
    },
    {
      "inputs": [],
      "name": "winningContenderId",
      "outputs": [
        {
          "internalType": "uint256",
          "name": "",
          "type": "uint256"
        }
      ],
      "stateMutability": "view",
      "type": "function",
      "constant": true
    },
    {
      "inputs": [],
      "name": "openRegistrations",
      "outputs": [],
      "stateMutability": "nonpayable",
      "type": "function"
    },
    {
      "inputs": [],
      "name": "closeRegistrations",
      "outputs": [],
      "stateMutability": "nonpayable",
      "type": "function"
    },
    {
      "inputs": [],
      "name": "openVoting",
      "outputs": [],
      "stateMutability": "nonpayable",
      "type": "function"
    },
    {
      "inputs": [
        {
          "internalType": "string",
          "name": "_name",
          "type": "string"
        }
      ],
      "name": "addContender",
      "outputs": [],
      "stateMutability": "nonpayable",
      "type": "function"
    },
    {
      "inputs": [],
      "name": "registerForVoting",
      "outputs": [],
      "stateMutability": "nonpayable",
      "type": "function"
    },
    {
      "inputs": [
        {
          "internalType": "uint256",
          "name": "_contenderId",
          "type": "uint256"
        }
      ],
      "name": "vote",
      "outputs": [],
      "stateMutability": "nonpayable",
      "type": "function"
    },
    {
      "inputs": [],
      "name": "closeVoting",
      "outputs": [],
      "stateMutability": "nonpayable",
      "type": "function"
    },
    {
      "inputs": [
        {
          "internalType": "uint256",
          "name": "_contenderId",
          "type": "uint256"
        }
      ],
      "name": "getContenderVoteCount",
      "outputs": [
        {
          "internalType": "uint256",
          "name": "",
          "type": "uint256"
        }
      ],
      "stateMutability": "view",
      "type": "function",
      "constant": true
    },
    {
      "inputs": [],
      "name": "getAllContenders",
      "outputs": [
        {
          "components": [
            {
              "internalType": "uint256",
              "name": "id",
              "type": "uint256"
            },
            {
              "internalType": "string",
              "name": "name",
              "type": "string"
            },
            {
              "internalType": "uint256",
              "name": "voteCount",
              "type": "uint256"
            }
          ],
          "internalType": "struct Election.Contender[]",
          "name": "",
          "type": "tuple[]"
        }
      ],
      "stateMutability": "view",
      "type": "function",
      "constant": true
    }
  ],
  "bytecode": "0x608060405234801561001057600080fd5b50336000806101000a81548173ffffffffffffffffffffffffffffffffffffffff021916908373ffffffffffffffffffffffffffffffffffffffff16021790555060006002819055506001600360006101000a81548160ff0219169083151502179055506001600360016101000a81548160ff021916908315150217905550611cb38061009e6000396000f3fe608060405234801561001057600080fd5b50600436106101165760003560e01c80638da5cb5b116100a2578063b495b08411610071578063b495b08414610299578063c3c5a547146102b7578063c631b292146102e7578063d420cd40146102f1578063f2fde38b146102fb57610116565b80638da5cb5b146102215780638eb31d961461023f578063a726998314610271578063affc06701461028f57610116565b806329d07c23116100e957806329d07c23146101a35780635e8f5d4e146101ad57806362a83bd5146101b75780636ec647e8146101e757806377eb1b711461020357610116565b80630121b93f1461011b57806305520f381461013757806309eef43e146101555780632479ecb814610185575b600080fd5b6101356004803603810190610130919061124b565b610317565b005b61013f61059c565b60405161014c9190611432565b60405180910390f35b61016f600480360381019061016a91906114b2565b610711565b60405161017c91906114fa565b60405180910390f35b61018d610731565b60405161019a91906114fa565b60405180910390f35b6101ab610744565b005b6101b561087a565b005b6101d160048036038101906101cc919061124b565b610951565b6040516101de9190611524565b60405180910390f35b61020160048036038101906101fc9190611674565b6109c1565b005b61020b610b21565b6040516102189190611524565b60405180910390f35b610229610b27565b60405161023691906116cc565b60405180910390f35b6102596004803603810190610254919061124b565b610b4b565b60405161026893929190611731565b60405180910390f35b610279610bfd565b60405161028691906114fa565b60405180910390f35b610297610c10565b005b6102a1610cbb565b6040516102ae9190611524565b60405180910390f35b6102d160048036038101906102cc91906114b2565b610cc1565b6040516102de91906114fa565b60405180910390f35b6102ef610ce1565b005b6102f9610e90565b005b610315600480360381019061031091906114b2565b610f82565b005b600360009054906101000a900460ff1615610367576040517f08c379a000000000000000000000000000000000000000000000000000000000815260040161035e906117bb565b60405180910390fd5b600660003373ffffffffffffffffffffffffffffffffffffffff1673ffffffffffffffffffffffffffffffffffffffff16815260200190815260200160002060009054906101000a900460ff166103f3576040517f08c379a00000000000000000000000000000000000000000000000000000000081526004016103ea9061184d565b60405180910390fd5b60008111801561040557506002548111155b610444576040517f08c379a000000000000000000000000000000000000000000000000000000000815260040161043b906118b9565b60405180910390fd5b600560003373ffffffffffffffffffffffffffffffffffffffff1673ffffffffffffffffffffffffffffffffffffffff16815260200190815260200160002060009054906101000a900460ff16156104d1576040517f08c379a00000000000000000000000000000000000000000000000000000000081526004016104c890611925565b60405180910390fd5b6001600082815260200190815260200160002060020160008154809291906104f890611974565b91905055506001600560003373ffffffffffffffffffffffffffffffffffffffff1673ffffffffffffffffffffffffffffffffffffffff16815260200190815260200160002060006101000a81548160ff0219169083151502179055503373ffffffffffffffffffffffffffffffffffffffff16817f030b0f8dcd86a031eddb071f91882edeac8173663ba775713b677b42b51be44b60405160405180910390a350565b6060600060025467ffffffffffffffff8111156105bc576105bb611549565b5b6040519080825280602002602001820160405280156105f557816020015b6105e261113d565b8152602001906001900390816105da5790505b5090506000600190505b6002548111610709576001600082815260200190815260200160002060405180606001604052908160008201548152602001600182018054610640906119ec565b80601f016020809104026020016040519081016040528092919081815260200182805461066c906119ec565b80156106b95780601f1061068e576101008083540402835291602001916106b9565b820191906000526020600020905b81548152906001019060200180831161069c57829003601f168201915b50505050508152602001600282015481525050826001836106da9190611a1e565b815181106106eb576106ea611a52565b5b6020026020010181905250808061070190611974565b9150506105ff565b508091505090565b60056020528060005260406000206000915054906101000a900460ff1681565b600360009054906101000a900460ff1681565b600360019054906101000a900460ff16610793576040517f08c379a000000000000000000000000000000000000000000000000000000000815260040161078a90611acd565b60405180910390fd5b600660003373ffffffffffffffffffffffffffffffffffffffff1673ffffffffffffffffffffffffffffffffffffffff16815260200190815260200160002060009054906101000a900460ff1615610820576040517f08c379a000000000000000000000000000000000000000000000000000000000815260040161081790611b5f565b60405180910390fd5b6001600660003373ffffffffffffffffffffffffffffffffffffffff1673ffffffffffffffffffffffffffffffffffffffff16815260200190815260200160002060006101000a81548160ff021916908315150217905550565b60008054906101000a900473ffffffffffffffffffffffffffffffffffffffff1673ffffffffffffffffffffffffffffffffffffffff163373ffffffffffffffffffffffffffffffffffffffff1614610908576040517f08c379a00000000000000000000000000000000000000000000000000000000081526004016108ff90611bcb565b60405180910390fd5b6000600360016101000a81548160ff0219169083151502179055507f2fc209f3df2fb10c5fcb1620d3e5f067b9ef99813ca8fa6b24de0418bdac542060405160405180910390a1565b6000808211801561096457506002548211155b6109a3576040517f08c379a000000000000000000000000000000000000000000000000000000000815260040161099a906118b9565b60405180910390fd5b60016000838152602001908152602001600020600201549050919050565b60008054906101000a900473ffffffffffffffffffffffffffffffffffffffff1673ffffffffffffffffffffffffffffffffffffffff163373ffffffffffffffffffffffffffffffffffffffff1614610a4f576040517f08c379a0000000000000000000000000000000000000000000000000000000008152600401610a4690611bcb565b60405180910390fd5b600360009054906101000a900460ff1615610a9f576040517f08c379a0000000000000000000000000000000000000000000000000000000008152600401610a96906117bb565b60405180910390fd5b60026000815480929190610ab290611974565b9190505550604051806060016040528060025481526020018281526020016000815250600160006002548152602001908152602001600020600082015181600001556020820151816001019080519060200190610b1092919061115e565b506040820151816002015590505050565b60025481565b60008054906101000a900473ffffffffffffffffffffffffffffffffffffffff1681565b6001602052806000526040600020600091509050806000015490806001018054610b74906119ec565b80601f0160208091040260200160405190810160405280929190818152602001828054610ba0906119ec565b8015610bed5780601f10610bc257610100808354040283529160200191610bed565b820191906000526020600020905b815481529060010190602001808311610bd057829003601f168201915b5050505050908060020154905083565b600360019054906101000a900460ff1681565b60008054906101000a900473ffffffffffffffffffffffffffffffffffffffff1673ffffffffffffffffffffffffffffffffffffffff163373ffffffffffffffffffffffffffffffffffffffff1614610c9e576040517f08c379a0000000000000000000000000000000000000000000000000000000008152600401610c9590611bcb565b60405180910390fd5b6000600360006101000a81548160ff021916908315150217905550565b60045481565b60066020528060005260406000206000915054906101000a900460ff1681565b60008054906101000a900473ffffffffffffffffffffffffffffffffffffffff1673ffffffffffffffffffffffffffffffffffffffff163373ffffffffffffffffffffffffffffffffffffffff1614610d6f576040517f08c379a0000000000000000000000000000000000000000000000000000000008152600401610d6690611bcb565b60405180910390fd5b600360009054906101000a900460ff1615610dbf576040517f08c379a0000000000000000000000000000000000000000000000000000000008152600401610db6906117bb565b60405180910390fd5b6001600360006101000a81548160ff021916908315150217905550600080600190505b6002548111610e53578160016000838152602001908152602001600020600201541115610e40576001600082815260200190815260200160002060020154915060016000828152602001908152602001600020600001546004819055505b8080610e4b90611974565b915050610de2565b507f8e9b46a70b3967bc9ea56ca61732c363a191fac88ae3ba011f4e030711c90117600454604051610e859190611524565b60405180910390a150565b60008054906101000a900473ffffffffffffffffffffffffffffffffffffffff1673ffffffffffffffffffffffffffffffffffffffff163373ffffffffffffffffffffffffffffffffffffffff1614610f1e576040517f08c379a0000000000000000000000000000000000000000000000000000000008152600401610f1590611bcb565b60405180910390fd5b6001600360006101000a81548160ff0219169083151502179055506001600360016101000a81548160ff0219169083151502179055507f0426b321a943b20e0f1718597ec8225b2004af63f1de22ca0d09689460c2866760405160405180910390a1565b60008054906101000a900473ffffffffffffffffffffffffffffffffffffffff1673ffffffffffffffffffffffffffffffffffffffff163373ffffffffffffffffffffffffffffffffffffffff1614611010576040517f08c379a000000000000000000000000000000000000000000000000000000000815260040161100790611bcb565b60405180910390fd5b600073ffffffffffffffffffffffffffffffffffffffff168173ffffffffffffffffffffffffffffffffffffffff161415611080576040517f08c379a000000000000000000000000000000000000000000000000000000000815260040161107790611c5d565b60405180910390fd5b8073ffffffffffffffffffffffffffffffffffffffff1660008054906101000a900473ffffffffffffffffffffffffffffffffffffffff1673ffffffffffffffffffffffffffffffffffffffff167f8be0079c531659141344cd1fd0a4f28419497f9722a3daafe3b4186f6b6457e060405160405180910390a3806000806101000a81548173ffffffffffffffffffffffffffffffffffffffff021916908373ffffffffffffffffffffffffffffffffffffffff16021790555050565b60405180606001604052806000815260200160608152602001600081525090565b82805461116a906119ec565b90600052602060002090601f01602090048101928261118c57600085556111d3565b82601f106111a557805160ff19168380011785556111d3565b828001600101855582156111d3579182015b828111156111d25782518255916020019190600101906111b7565b5b5090506111e091906111e4565b5090565b5b808211156111fd5760008160009055506001016111e5565b5090565b6000604051905090565b600080fd5b600080fd5b6000819050919050565b61122881611215565b811461123357600080fd5b50565b6000813590506112458161121f565b92915050565b6000602082840312156112615761126061120b565b5b600061126f84828501611236565b91505092915050565b600081519050919050565b600082825260208201905092915050565b6000819050602082019050919050565b6112ad81611215565b82525050565b600081519050919050565b600082825260208201905092915050565b60005b838110156112ed5780820151818401526020810190506112d2565b838111156112fc576000848401525b50505050565b6000601f19601f8301169050919050565b600061131e826112b3565b61132881856112be565b93506113388185602086016112cf565b61134181611302565b840191505092915050565b600060608301600083015161136460008601826112a4565b506020830151848203602086015261137c8282611313565b915050604083015161139160408601826112a4565b508091505092915050565b60006113a8838361134c565b905092915050565b6000602082019050919050565b60006113c882611278565b6113d28185611283565b9350836020820285016113e485611294565b8060005b858110156114205784840389528151611401858261139c565b945061140c836113b0565b925060208a019950506001810190506113e8565b50829750879550505050505092915050565b6000602082019050818103600083015261144c81846113bd565b905092915050565b600073ffffffffffffffffffffffffffffffffffffffff82169050919050565b600061147f82611454565b9050919050565b61148f81611474565b811461149a57600080fd5b50565b6000813590506114ac81611486565b92915050565b6000602082840312156114c8576114c761120b565b5b60006114d68482850161149d565b91505092915050565b60008115159050919050565b6114f4816114df565b82525050565b600060208201905061150f60008301846114eb565b92915050565b61151e81611215565b82525050565b60006020820190506115396000830184611515565b92915050565b600080fd5b600080fd5b7f4e487b7100000000000000000000000000000000000000000000000000000000600052604160045260246000fd5b61158182611302565b810181811067ffffffffffffffff821117156115a05761159f611549565b5b80604052505050565b60006115b3611201565b90506115bf8282611578565b919050565b600067ffffffffffffffff8211156115df576115de611549565b5b6115e882611302565b9050602081019050919050565b82818337600083830152505050565b6000611617611612846115c4565b6115a9565b90508281526020810184848401111561163357611632611544565b5b61163e8482856115f5565b509392505050565b600082601f83011261165b5761165a61153f565b5b813561166b848260208601611604565b91505092915050565b60006020828403121561168a5761168961120b565b5b600082013567ffffffffffffffff8111156116a8576116a7611210565b5b6116b484828501611646565b91505092915050565b6116c681611474565b82525050565b60006020820190506116e160008301846116bd565b92915050565b600082825260208201905092915050565b6000611703826112b3565b61170d81856116e7565b935061171d8185602086016112cf565b61172681611302565b840191505092915050565b60006060820190506117466000830186611515565b818103602083015261175881856116f8565b90506117676040830184611515565b949350505050565b7f566f74696e6720697320636c6f73656400000000000000000000000000000000600082015250565b60006117a56010836116e7565b91506117b08261176f565b602082019050919050565b600060208201905081810360008301526117d481611798565b9050919050565b7f596f7520617265206e6f74207265676973746572656420666f7220766f74696e60008201527f6700000000000000000000000000000000000000000000000000000000000000602082015250565b60006118376021836116e7565b9150611842826117db565b604082019050919050565b600060208201905081810360008301526118668161182a565b9050919050565b7f496e76616c696420636f6e74656e646572204944000000000000000000000000600082015250565b60006118a36014836116e7565b91506118ae8261186d565b602082019050919050565b600060208201905081810360008301526118d281611896565b9050919050565b7f596f75206861766520616c726561647920766f74656400000000000000000000600082015250565b600061190f6016836116e7565b915061191a826118d9565b602082019050919050565b6000602082019050818103600083015261193e81611902565b9050919050565b7f4e487b7100000000000000000000000000000000000000000000000000000000600052601160045260246000fd5b600061197f82611215565b91507fffffffffffffffffffffffffffffffffffffffffffffffffffffffffffffffff8214156119b2576119b1611945565b5b600182019050919050565b7f4e487b7100000000000000000000000000000000000000000000000000000000600052602260045260246000fd5b60006002820490506001821680611a0457607f821691505b60208210811415611a1857611a176119bd565b5b50919050565b6000611a2982611215565b9150611a3483611215565b925082821015611a4757611a46611945565b5b828203905092915050565b7f4e487b7100000000000000000000000000000000000000000000000000000000600052603260045260246000fd5b7f526567697374726174696f6e732061726520636c6f7365640000000000000000600082015250565b6000611ab76018836116e7565b9150611ac282611a81565b602082019050919050565b60006020820190508181036000830152611ae681611aaa565b9050919050565b7f596f752061726520616c7265616479207265676973746572656420666f72207660008201527f6f74696e67000000000000000000000000000000000000000000000000000000602082015250565b6000611b496025836116e7565b9150611b5482611aed565b604082019050919050565b60006020820190508181036000830152611b7881611b3c565b9050919050565b7f4f776e61626c653a2063616c6c6572206973206e6f7420746865206f776e6572600082015250565b6000611bb56020836116e7565b9150611bc082611b7f565b602082019050919050565b60006020820190508181036000830152611be481611ba8565b9050919050565b7f4f776e61626c653a206e6577206f776e657220697320746865207a65726f206160008201527f6464726573730000000000000000000000000000000000000000000000000000602082015250565b6000611c476026836116e7565b9150611c5282611beb565b604082019050919050565b60006020820190508181036000830152611c7681611c3a565b905091905056fea26469706673582212204dce34a66bae05c18714473c09bda35d868d9910bab81c39576e3e2b51d9bf9d64736f6c634300080a0033",
  "immutableReferences": {},
  "source": "// SPDX-License-Identifier: MIT\r\npragma solidity ^0.8.0;\r\n\r\ncontract Ownable {\r\n    address public owner;\r\n\r\n    event OwnershipTransferred(address indexed previousOwner, address indexed newOwner);\r\n\r\n    constructor() {\r\n        owner = msg.sender;\r\n    }\r\n\r\n    modifier onlyOwner() {\r\n        require(msg.sender == owner, \"Ownable: caller is not the owner\");\r\n        _;\r\n    }\r\n\r\n    function transferOwnership(address newOwner) public onlyOwner {\r\n        require(newOwner != address(0), \"Ownable: new owner is the zero address\");\r\n        emit OwnershipTransferred(owner, newOwner);\r\n        owner = newOwner;\r\n    }\r\n}\r\n\r\ncontract Election is Ownable {\r\n    mapping(uint256 => Contender) public contenders;\r\n    uint256 public contenderCount;\r\n    bool public votingClosed;\r\n    bool public registrationsOpen; // Variable to control registration status\r\n    uint256 public winningContenderId;\r\n    \r\n    struct Contender {\r\n        uint256 id;\r\n        string name;\r\n        uint256 voteCount;\r\n    }\r\n\r\n    mapping(address => bool) public hasVoted; // Mapping to track whether an address has voted\r\n    mapping(address => bool) public isRegistered; // Mapping to track whether an address is registered for voting\r\n\r\n    event Voted(uint256 indexed contenderId, address indexed voter);\r\n    event VotingClosed(uint256 winningContenderId);\r\n    event RegistrationOpened();\r\n    event RegistrationClosed();\r\n\r\n    constructor() {\r\n        contenderCount = 0;\r\n        votingClosed = true;\r\n        registrationsOpen = true; // Registration is open by default\r\n    }\r\n\r\n    modifier onlyWhenRegistrationsOpen() {\r\n        require(registrationsOpen, \"Registrations are closed\");\r\n        _;\r\n    }\r\n\r\n    modifier onlyWhenVotingOpen() {\r\n        require(!votingClosed, \"Voting is closed\");\r\n        _;\r\n    }\r\n\r\n    function openRegistrations() external onlyOwner {\r\n        votingClosed = true;\r\n        registrationsOpen = true;\r\n        emit RegistrationOpened();\r\n    }\r\n\r\n    function closeRegistrations() external onlyOwner {\r\n        registrationsOpen = false;\r\n        \r\n        emit RegistrationClosed();\r\n    }\r\n\r\n    function openVoting() external onlyOwner {\r\n        votingClosed = false;\r\n    }\r\n\r\n    function addContender(string memory _name) external onlyOwner onlyWhenVotingOpen {\r\n        contenderCount++;\r\n        contenders[contenderCount] = Contender(contenderCount, _name, 0);\r\n    }\r\n\r\n    function registerForVoting() external onlyWhenRegistrationsOpen {\r\n        require(!isRegistered[msg.sender], \"You are already registered for voting\");\r\n        isRegistered[msg.sender] = true;\r\n    }\r\n\r\n    function vote(uint256 _contenderId) external onlyWhenVotingOpen {\r\n        require(isRegistered[msg.sender], \"You are not registered for voting\");\r\n        require(_contenderId > 0 && _contenderId <= contenderCount, \"Invalid contender ID\");\r\n        require(!hasVoted[msg.sender], \"You have already voted\");\r\n        \r\n        contenders[_contenderId].voteCount++;\r\n        hasVoted[msg.sender] = true;\r\n        emit Voted(_contenderId, msg.sender);\r\n    }\r\n\r\n    function closeVoting() external onlyOwner onlyWhenVotingOpen {\r\n        votingClosed = true;\r\n        uint256 maxVotes = 0;\r\n        for (uint256 i = 1; i <= contenderCount; i++) {\r\n            if (contenders[i].voteCount > maxVotes) {\r\n                maxVotes = contenders[i].voteCount;\r\n                winningContenderId = contenders[i].id;\r\n            }\r\n        }\r\n        emit VotingClosed(winningContenderId);\r\n    }\r\n\r\n    function getContenderVoteCount(uint256 _contenderId) external view returns (uint256) {\r\n        require(_contenderId > 0 && _contenderId <= contenderCount, \"Invalid contender ID\");\r\n        return contenders[_contenderId].voteCount;\r\n    }\r\n\r\n    function getAllContenders() external view returns (Contender[] memory) {\r\n        Contender[] memory allContenders = new Contender[](contenderCount);\r\n        for (uint256 i = 1; i <= contenderCount; i++) {\r\n            allContenders[i - 1] = contenders[i];\r\n        }\r\n        return allContenders;\r\n    }\r\n}\r\n",
  "sourcePath": "D:\\FYPROJ\\WORKING\\Server\\contracts\\Election2.sol",
  "compiler": {
    "name": "solc",
    "version": "0.8.10+commit.fc410830.Emscripten.clang"
  },
  "schemaVersion": "3.4.16",
  "updatedAt": "2024-03-12T15:50:09.667Z",
  "networkType": "ethereum",
  "devdoc": {
    "kind": "dev",
    "methods": {},
    "version": 1
  },
  "userdoc": {
    "kind": "user",
    "methods": {},
    "version": 1
  }
}